S01A0000446973706C6179696E675F5468696E6773202E737265630A
S11300000C9434000C9451000C9451000C946D0722
S11300100C9451000C9451000C9451000C94510018
S11300200C9451000C9451000C9451000C94510008
S11300300C9451000C9451000C9451000C945100F8
S11300400C9451000C9451000C9451000C945100E8
S11300500C9451000C9451000C9451000C945100D8
S11300600C9451000C94510011241FBECFEFD8E022
S1130070DEBFCDBF11E0A0E0B1E0EEE8F0E102C0E8
S113008005900D92A630B107D9F721E0A6E0B1E0C2
S113009001C01D92AC32B207E1F70E9403070C9431
S11300A045080C940000000020E012C095B19F7D2B
S11300B095B90000882324F495B1986095B903C0DC
S11300C095B1977F95B995B1906295B92F5F880FD7
S11300D0283060F30895CF93C62F95B1906195B9F8
S11300E00E9453008C2F0E94530085B18F7E85B9E6
S11300F0000085B1806185B9CF91089584B188638A
S113010084B960E089E00E946B0067E08BE00E94A4
S11301106B006FE08AE00E946B0060E08FE00E9459
S11301206B0061E08CE00E946B000895883040F41D
S1130130E82FF0E0E05FFE4F60838F5F0E946B006A
S11301400895803120F4682F8AE00E946B0008959E
S1130150CF93C0E012C08C2F90E0FC01E05FFE4F13
S11301602081222349F0FC01E05FFE4F108260E011
S113017081E08C0F0E946B00CF5FC83060F3CF9199
S113018008956CE781E00E94020860E482E00E9426
S1130190020860E483E00E9402086CE584E00E94A7
S11301A0020864E485E00E94020864E486E00E9498
S11301B002086CE787E00E9402082FEF84E39CE0CA
S11301C0215080409040E1F700C000000E942C08BC
S11301D06CE781E00E94020864E482E00E94020865
S11301E064E483E00E9402086CE784E00E94020851
S11301F064E485E00E94020864E486E00E94020848
S113020064E487E00E9402082FEF84E39CE021501D
S113021080409040E1F700C000000E942C0864E494
S113022081E00E9402086CE682E00E9402086CE70A
S113023083E00E94020864E584E00E94020864E40A
S113024085E00E94020864E486E00E94020864E4F7
S113025087E00E9402082FEF84E39CE02150804055
S11302609040E1F700C000000E942C086CE781E098
S11302700E94020860E482E00E94020860E483E0D5
S11302800E9402086CE784E00E94020860E485E0B2
S11302900E94020860E486E00E9402086CE787E09E
S11302A00E9402082FEF84E39CE02150804090409C
S11302B0E1F700C000000E942C086EEF86E00E9467
S11302C00D086EEF85E00E940D0862E884E00E944C
S11302D00D086EEF83E00E940D086EEF82E00E942D
S11302E00D082FEF84E39CE0215080409040E1F71B
S11302F000C000000E942C086EE786E00E940D08F2
S113030060EE85E00E940D0860EC84E00E940D0818
S113031060EE83E00E940D086EE782E00E940D0803
S11303202FEF84E39CE0215080409040E1F700C02F
S113033000000E942C086CE781E00E94020860E43F
S113034082E00E94020860E483E00E9402086CE7F5
S113035084E00E94020860E485E00E94020860E4F0
S113036086E00E9402086CE787E00E9402082FEFF3
S113037084E39CE0215080409040E1F700C00000FD
S11303800E942C086CE781E00E94020864E482E089
S11303900E94020864E483E00E9402086CE784E09F
S11303A00E94020860E785E00E94020868E586E092
S11303B00E9402086CE487E00E9402082FEF84E3A5
S11303C09CE0215080409040E1F700C000000E9472
S11303D02C080E94A80081E090E090930D01809386
S11303E00C0108956CE781E00E94020860E482E059
S11303F00E94020860E483E00E9402086CE784E043
S11304000E94020864E085E00E94020864E086E03D
S11304100E9402086CE787E00E9402082FEF84E341
S11304209CE0215080409040E1F700C000000E9411
S11304302C0864E681E00E94020864E682E00E94DF
S1130440020864E783E00E94020864E584E00E94F5
S113045002086CE585E00E9402086CE486E00E94D4
S113046002086CE487E00E9402082FEF84E39CE01A
S1130470215080409040E1F700C000000E942C0809
S11304806CE781E00E94020864E482E00E940208B2
S113049064E483E00E9402086CE784E00E9402089E
S11304A064E485E00E94020864E486E00E94020895
S11304B064E487E00E9402082FEF84E39CE021506B
S11304C080409040E1F700C000000E942C086CE4DA
S11304D081E00E94020868E582E00E94020860E769
S11304E083E00E94020860E684E00E94020860E75C
S11304F085E00E94020868E586E00E9402086CE438
S113050087E00E9402082FEF84E39CE021508040A2
S11305109040E1F700C000000E942C086CE781E0E5
S11305200E94020860E482E00E94020860E483E022
S11305300E9402086CE784E00E94020860E485E0FF
S11305400E94020860E486E00E9402086CE787E0EB
S11305500E9402082FEF84E39CE0215080409040E9
S1130560E1F700C000000E942C0860E881E00E94CE
S11305700D0860E882E00E940D086EEF83E00E949F
S11305800D0862E884E00E940D0862E885E00E949C
S11305900D082FEF84E39CE0215080409040E1F768
S11305A000C000000E942C086EE982E00E940D0841
S11305B062E983E00E940D0862E984E00E940D086C
S11305C062EF85E00E940D082FEF84E39CE0215048
S11305D080409040E1F700C000000E942C086EEFBC
S11305E082E00E940D0862E983E00E940D0862E93E
S11305F084E00E940D0862E985E00E940D082FEF57
S113060084E39CE0215080409040E1F700C000006A
S11306100E942C08089564E481E00E94020864E4C6
S113062082E00E94020864E483E00E9402086CE70E
S113063084E00E94020860E185E00E94020860E113
S113064086E00E94020860E187E00E9402082FEF22
S113065084E39CE0215080409040E1F700C000001A
S11306600E942C086EEF86E00E940D086EEF85E074
S11306700E940D0862E884E00E940D086EEF83E09A
S11306800E940D086EEF82E00E940D082FEF84E3B4
S11306909CE0215080409040E1F700C000000E949F
S11306A02C0864E481E00E94020864E482E00E9471
S11306B0020864E483E00E94020864E484E00E9487
S11306C0020864E485E00E94020864E486E00E9473
S11306D002086CE787E00E9402082FEF84E39CE0A5
S11306E0215080409040E1F700C000000E942C0897
S11306F064E481E00E94020864E482E00E9402084B
S113070064E583E00E94020864E584E00E94020834
S11307106CE785E00E9402086CE686E00E9402080D
S113072064E487E00E9402082FEF84E39CE02150F8
S113073080409040E1F700C000000E942C086CE764
S113074081E00E94020860E182E00E94020860E108
S113075083E00E94020860E184E00E94020860E1F4
S113076085E00E94020860E186E00E9402086CE7CE
S113077087E00E9402082FEF84E39CE02150804030
S11307809040E1F700C000000E942C0864E681E07C
S11307900E94020864E682E00E94020864E783E0A3
S11307A00E94020864E584E00E9402086CE585E08A
S11307B00E9402086CE486E00E9402086CE487E070
S11307C00E9402082FEF84E39CE021508040904077
S11307D0E1F700C000000E942C0881E090E09093B3
S11307E00D0180930C01089580910A0190910B01F1
S11307F0892B31F40E94A8006EEF80E00E949600DD
S113080080910A0190910B01019731F40E94A80094
S113081060EB80E00E94960080910A0190910B01A8
S1130820029731F40E94A8006DEE80E00E949600C9
S113083080910A0190910B01039731F40E94A80062
S113084069EF80E00E94960080910A0190910B016B
S1130850049731F40E94A80063EB80E00E949600A4
S113086080910A0190910B01059731F40E94A80030
S11308706BED80E00E94960080910A0190910B013B
S1130880069731F40E94A8006FED80E00E94960064
S113089080910A0190910B01079731F40E94A800FE
S11308A060EF80E00E94960080910A0190910B0114
S11308B0089731F40E94A8006FEF80E00E94960030
S11308C080910A0190910B01099731F40E94A800CC
S11308D06BEF80E00E94960080910A0190910B01D9
S11308E00A9744F00E94A8006EEF80E00E949600F0
S11308F00E940B030895CF93DF93CEE0D1E088816B
S113090062EF84500E940D08888162E983500E943E
S11309100D08888162E982500E940D08888162E88E
S113092081500E940D086EEF88810E940D08888115
S11309306EEF8B500E940D08888166EC8A500E94ED
S11309400D08888166EC89500E940D08888166EC48
S113095088500E940D0888816EEF87500E940D0810
S1130960888168E18D500E940D08888168E18E506D
S11309700E940D08888168E18F500E940D088881CB
S113098068E180510E940D08888169E981510E94C3
S11309900D0888816BED82510E940D0888816EE7F5
S11309A083510E940D0888816CE384510E940D08D4
S11309B0888168E185510E940D08DF91CF910895E7
S11309C010920F0110920E011CC00E947B042FE7AD
S11309D089EA93E0215080409040E1F700C0000094
S11309E00E942C088FE19EE40197F1F700C00000FB
S11309F080910E0190910F01019690930F018093C5
S1130A000E0180910E0190910F014E97F4F20E9415
S1130A102C0810920F0110920E0108951092C50037
S1130A2083E38093C40086E08093C20088E18093CE
S1130A30C10008958091C0008823E4F78091C60026
S1130A4008959091C00095FFFCCF8093C60008954F
S1130A500F931F93CF93DF938091260190912701E9
S1130A60209104013091050128173907CCF0209119
S1130A700801309109018217930794F060912401D1
S1130A807091250120910201309103012617370747
S1130A903CF02091060130910701621773071CF4A2
S1130AA00E94C10026C041E00E94DC072FEF82E5CE
S1130AB097E0215080409040E1F700C00000C4E27C
S1130AC0D1E006E211E040E06881F80180810E94F3
S1130AD0DC07F801808141E0688181500E94DC07D5
S1130AE0809126019091270101979093270180938B
S1130AF02601DF91CF911F910F9108950F931F93BA
S1130B00CF93DF93809126019091270120910401D6
S1130B103091050128173907CCF020910801309154
S1130B2009018217930794F06091240170912501C3
S1130B302091020130910301261737073CF02091E0
S1130B40060130910701621773071CF40E94C1006B
S1130B5026C041E00E94DC072FEF82E597E0215098
S1130B6080409040E1F700C00000C4E2D1E006E21A
S1130B7011E040E06881F80180810E94DC07F801FF
S1130B80808141E068818F5F0E94DC0780912601AB
S1130B909091270101969093270180932601DF917C
S1130BA0CF911F910F9108950F931F93CF93DF93CC
S1130BB08091260190912701209104013091050133
S1130BC028173907CCF020910801309109018217C8
S1130BD0930794F060912401709125012091020102
S1130BE030910301261737073CF02091060130911C
S1130BF00701621773071CF40E94C10026C041E07C
S1130C000E94DC072FEF82E597E02150804090405E
S1130C10E1F700C0000004E211E0C6E2D1E040E0E8
S1130C20F801608188810E94DC07F80160816F5FB0
S1130C3041E088810E94DC07809124019091250184
S1130C4001969093250180932401DF91CF911F9108
S1130C500F9108950F931F93CF93DF9380912601F3
S1130C60909127012091040130910501281739073B
S1130C70CCF020910801309109018217930794F078
S1130C8060912401709125012091020130910301AA
S1130C90261737073CF020910601309107016217AF
S1130CA073071CF40E94C10026C041E00E94DC07C7
S1130CB02FEF82E597E0215080409040E1F700C09B
S1130CC0000004E211E0C6E2D1E040E0F8016081F6
S1130CD088810E94DC07F8016081615041E08881CD
S1130CE00E94DC0780912401909125010197909343
S1130CF0250180932401DF91CF911F910F910895D5
S1130D0083E50E9421050E941A05813379F082331C
S1130D1081F0833389F0843391F0853399F08633FD
S1130D20A1F08733A9F486E090E0089580E090E094
S1130D30089581E090E0089582E090E0089583E0D2
S1130D4090E0089584E090E0089585E090E00895AF
S1130D5087E090E008951F93CF93DF930E9480066D
S1130D60182FC8E2D1E0888399830E9480068A8381
S1130D709B8341E0612F0E94DC07DF91CF911F919B
S1130D8008958091260190912701E0E2F1E091839A
S1130D908083209124013091250133832283409163
S1130DA02A0150912B0184179507A1F48091280101
S1130DB0909129012817390769F40E94AB068091A4
S1130DC00A0190910B01019690930B0180930A0103
S1130DD00E94F4030895CF93DF93EC01892B11F45F
S1130DE00E942805C130D10511F40E947E05C2304D
S1130DF0D10511F40E94D405239711F40E942A0608
S1130E00DF91CF91089584E090E09093270180933F
S1130E10260183E090E090932501809324018AB118
S1130E2080648AB987B18E7F87B987B18D7F87B98E
S1130E3087B18B7F87B987B1877F87B9E8E6F0E010
S1130E40808181608083EBE6F0E080818160808333
S1130E5080818260808380818460808380818860D7
S1130E6080830E940E050E94C4070E947E008AE0CF
S1130E700E94A1000E94F4038BB180648BB92FEF10
S1130E8082E597E0215080409040E1F700C00000E7
S1130E900E94F2010E94E0048BB18F7B8BB92FEF8B
S1130EA082E597E0215080409040E1F700C00000C7
S1130EB00E94AB06789408C08091000190910101D2
S1130EC00E94EB060E94C10680910C0190910D01D5
S1130ED0019791F780E090E008951F920F920FB66A
S1130EE00F9211248F939F93309904C010920101A3
S1130EF010920001319906C081E090E090930101C5
S1130F0080930001329906C082E090E09093010141
S1130F1080930001339906C083E090E0909301012F
S1130F20809300019F918F910F900FBE0F901F909F
S1130F301895000020E012C095B19E7F95B900007D
S1130F40882324F495B1926095B903C095B19D7F2F
S1130F5095B995B1916095B92F5F880F283060F3EA
S1130F600895CF93C62F95B1946095B90E949907BF
S1130F708C2F0E94990785B18B7F85B9000085B1BC
S1130F80846085B9CF91089584B1876084B960E0A5
S1130F9089E00E94B10767E08BE00E94B1076FE02F
S1130FA08AE00E94B10760E08FE00E94B10761E02F
S1130FB08CE00E94B1070895883018F5683008F570
S1130FC021E030E002C0220F331F6A95E2F7442388
S1130FD041F0E82FF0E0E85EFE4F9081292B20835A
S1130FE008C0E82FF0E0E85EFE4F209590812923A9
S1130FF02083E82FF0E0E85EFE4F60818F5F0E945F
S1131000B1070895883040F4E82FF0E0E85EFE4F21
S113101060838F5F0E94B10708951F93CF93DF937E
S11310208830B0F4162FD82FC0E010C0212F30E044
S11310300C2E02C0359527950A94E2F741E020FF73
S113104040E06D2F8C2F0E94DC07CF5FC83070F317
S1131050DF91CF911F910895CF93C0E012C08C2FE0
S113106090E0FC01E85EFE4F2081222349F0FC0160
S1131070E85EFE4F108260E081E08C0F0E94B107B1
S1111080CF5FC83060F3CF910895F894FFCF8E
S109108E01000700070049
S9030000FC
